:100000000C9434000C9451000C9451000C94510049
:100010000C9451000C9451000C9451000C9451001C
:100020000C9451000C9451000C9451000C9451000C
:100030000C9451000C9451000C9451000C945100FC
:100040000C94C1000C9451000C9451000C9451007C
:100050000C9451000C9451000C9451000C945100DC
:100060000C9451000C94510011241FBECFEFD8E026
:10007000DEBFCDBF11E0A0E0B1E0EEEAFCE002C0DF
:1000800005900D92A630B107D9F727E0A6E0B1E0C0
:1000900001C01D92AB31B207E1F70E9481020C94BE
:1000A00055060C94000022272AB92BB93C9A3D9A98
:1000B0004498459808953299FECF36B133FF1FC05A
:1000C000732F73707064932F9370903039F0913068
:1000D00041F0923041F0922F449806C0982F4598F5
:1000E00003C0962F01C0942F9BB93FEF3AB9329BC2
:1000F000FECF22272AB92BB9972F8827089589B1D7
:10010000329902C089B1FCCF33703068932F0895C3
:100110008EBD0DB407FEFDCF8EB50895EF92FF9210
:100120000F931F93CF93DF93E82ED42F152F062F15
:10013000F72EC22F2A9A8FEF0E9488002A988E2DC0
:1001400080640E9488008F2D0E948800802F0E946A
:100150008800812F0E9488008D2F0E9488008C2F9C
:100160000E948800CAE08FEF0E94880087FF02C0CB
:10017000C150C9F7DF91CF911F910F91FF90EF9080
:1001800008951F920F920FB60F9211242F933F9351
:100190008F939F93AF93BF93809117019091180114
:1001A000A0911901B0911A013091160123E0230F9B
:1001B0002D3758F50196A11DB11D2093160180938E
:1001C000170190931801A0931901B0931A0180911F
:1001D000120190911301A0911401B09115010196A3
:1001E000A11DB11D8093120190931301A0931401DE
:1001F000B0931501BF91AF919F918F913F912F9136
:100200000F900FBE0F901F90189526E8230F0296AF
:10021000A11DB11DD2CFEF92FF921F93CF93DF9319
:100220007A012FEFAB01BC0188E10E948E00182FEC
:10023000811136C02A988FEF0E9488008EEF0E94AD
:100240008800E7018EEFF81A89910E948800CE1588
:10025000DF05D1F78FEF0E9488008FEF0E948800A2
:100260008FEF0E9488008F71C8EEDDEF853071F04E
:100270002A9A12E0812FDF91CF911F91FF90EF908A
:100280000895219719F42A9A13E0F4CF8FEF0E9472
:1002900088008823B1F32A9A8FEF0E948800EACF62
:1002A00011E0E8CFEF92FF921F93CF93DF937A0193
:1002B0002FEFAB01BC0181E10E948E00182FC0E13D
:1002C000D7E2882321F011E01BC0219701F18FEFC5
:1002D0000E9488008E3FC9F7E7018EEFF81A8FEF72
:1002E0000E9488008993CE15DF05C9F78FEF0E9421
:1002F00088008FEF0E9488002A9A8FEF0E94880062
:10030000812FDF91CF911F91FF90EF90089512E020
:10031000F7CFCF92DF92EF92FF92CF93DF936B01F3
:100320007C01EA01413082E05807B8F580E092E0B4
:10033000BA010E940A069B0150E040E0C701B601E5
:100340000E941E066B01CA01B901785F8F4F9F4F53
:100350004BE151E00E94520181110EC0ABE1B3E0CC
:1003600030E020E0CC9DA001CD9D500DDC9D500DD6
:100370001124C217D30739F4DF91CF91FF90EF908A
:10038000DF90CF900895F901E55EFE4FE40FF51F71
:1003900090819D932F5F3F4FECCFCC0CDD1CEE1C6A
:1003A000FF1CC701B601785F8F4F9F4F4BE153E0B1
:1003B0000E945201C701B6016F5F774F8F4F9F4F69
:1003C0004BE155E00E94520180E0D6CFCF92DF9200
:1003D000EF92FF920F931F93CF93DF936B017C01FA
:1003E000EA01413082E0580708F045C080E092E021
:1003F000BA010E940A069B0150E040E0C701B60125
:100400000E941E0669017A01E8E0DE0EE11CF11C83
:10041000C69F8001C79F100DD69F100D11244BE180
:1004200051E0C701B6010E945201811119C0F801C3
:10043000E55EFE4FABE1B3E0CD018B5193408C17ED
:100440009D07B0F04BE151E0C701B601DF91CF91BC
:100450001F910F91FF90EF90DF90CF900C940B01C4
:10046000EBE1F1E0119283E0EB31F807D9F7DFCF50
:100470008D918193E1CFCC0CDD1CEE1CFF1CC701DC
:10048000B601785F8F4F9F4F4BE153E00E940B0105
:10049000811109C0C701B6016F5F774F8F4F9F4F22
:1004A0004BE155E0D3CF81E0DF91CF911F910F91C8
:1004B000FF90EF90DF90CF9008958091100181110F
:1004C0001EC084E24091060150910701609108012D
:1004D000709109014F5F5F4F6F4F7F4F409306014F
:1004E00050930701609308017093090161707727A9
:1004F0004F3F5F406105710508F48260089580E216
:10050000E1CF789484B5826084BD84B5816084BD78
:1005100085B5826085BD85B5816085BD80916E00A1
:10052000816080936E0010928100809181008260D2
:10053000809381008091810081608093810080910F
:1005400080008160809380008091B10084608093FE
:10055000B1008091B00081608093B00080917A00FA
:10056000846080937A0080917A00826080937A0020
:1005700080917A00816080937A0080917A0080680F
:1005800080937A001092C10010926E000E94530076
:1005900084B18C6284B9249883E58CBD2A9A8FE358
:1005A0009CE90197F1F700C00000CAE08FEF0E94BC
:1005B0008800C150D9F725E940E050E0BA0180E059
:1005C0000E948E00813009F08FC027E84AEA51E08E
:1005D00060E070E088E00E948E00813009F084C005
:1005E0008FEF0E9488008FEF0E9488008FEF0E949B
:1005F00088008FEF0E948800C8EED3E0219708F0B2
:1006000058C02FEF40E050E0BA018AE30E948E000C
:1006100081110CC08FEF0E9488008FEF0E9488002C
:100620008FEF0E9488008FEF0E9488008CB58C7F2E
:100630008CBD8DB581608DBD2A9A8FEF0E94880098
:1006400086E0E82EF12CC0E0D1E0612C92E1792E19
:1006500025E0422E512C01E010E032E0232E312C17
:1006600020911101409105016091100180910F01CD
:100670000E945B00292F97FFE5C12370223009F407
:1006800022C1233009F422C1213009F419C145984F
:1006900087FD47C0282F207F41F51092100110934D
:1006A0000E0100930D010E945D0280930F0144989A
:1006B00065C12FEF40E050E0BA0187E30E948E0051
:1006C0002FEF40E050E060E070E489E20E948E008D
:1006D000882339F0AFE9BFE01197F1F700C00000BF
:1006E0008DCFCD2B09F08DCFFFCF203129F4809114
:1006F000110180931001D3CF807E803441F480912A
:1007000010018F3F61F2809110018F5FF2CF803630
:1007100031F680911001882311F2809110018150EF
:10072000E8CF9C01207E332720383105B9F5D093DE
:100730000401C0930301D0930201C09301013092E0
:100740000E0120920D0181E080930F01809105013F
:1007500040E0882319F0409105014150209110019B
:1007600030E0A2E1B0E00E944606640F711D811DD9
:10077000911D40E051E00E94890110930C0100930B
:100780000B0180911B038093110180910F018E7FDB
:1007900080930F0180910F01826016C0203A3105CD
:1007A000B1F4D0930401C0930301D0930201C0932C
:1007B0000101E3E0F0E0F0930E01E0930D011092EF
:1007C0000C0110920B0183E080930F012BC0807FFE
:1007D0009927803C910541F584E090E090930E01CB
:1007E00080930D0183E080930F018091100180932D
:1007F0001B0310921C039091050190931D0391E03F
:1008000090931E0392E190931F0394E3909320032F
:10081000F0920201E092010110930C0100930B0190
:1008200080931101449A1CCF803E910511F550929E
:100830000E0140920D0183E080930F01D0930401DB
:10084000C093030181E08093000110920A0120917E
:10085000100130E0A2E1B0E00E94460640E051E025
:100860000E94890110920C0110920B01109211014B
:10087000D9CF803F910589F4F0920E01E0920D01ED
:1008800010920C0110920B01D0930401C09303014C
:10089000709202016092010196CF803D910509F0AE
:1008A000DFCE10920E0110920D0180910F018C7F0E
:1008B00080930F010E945D0290910F01892BF5CE6C
:1008C00080931001CDCE80930501CACE20910D01F9
:1008D00030910E012330310509F052C020910F01F3
:1008E00021FD05C020910F01246020930F0180930A
:1008F000110180910B0190910C01409101015091E7
:1009000002018417950708F0ABCE9C012F5F3F4F83
:1009100030930C0120930B0160911101855E9C4F77
:10092000DC016C932417350708F434CF80910F0154
:100930008D7F80930F01449880910501E0E088232A
:1009400019F0E0910501E15020911001409103015F
:100950005091040130E0A2E1B0E00E9446066E0F23
:10096000711D811D911D0E94E60110920E011092D1
:100970000D0180910F018E7F80930F01459A70CEFB
:10098000809311012630310509F055C080910B018B
:1009900090910C012091010130910201821793077F
:1009A00058F4019690930C0180930B0180910F01F4
:1009B000826080930F01449A20910B0130910C01C9
:1009C00080910101909102012817390708F448CE5F
:1009D000C0900301D0900401EBE1F3E0CF018B5113
:1009E00093408C159D0518F4B5EEB193F7CF812C8B
:1009F000912C54012091100130E0A2E1B0E00E945E
:100A00004606680D791D8A1D9B1DA6010E94E60100
:100A1000EFEF8E1A9E0AAE0ABE0AF2E18F1691041B
:100A2000A104B10439F710920E0110920D018091CA
:100A30000F018C7F3ACE80910F018D7F80930F0143
:100A400044980ECE96FF0CCE237069F445988091A1
:100A50000D0190910E01029708F002CE0E945D02F6
:100A600080930F01FDCD233009F0FACD80910D0167
:100A700090910E018330910509F4F2CD059709F0AC
:100A8000A3C080910A01883108F084CEE82FF0E0FD
:100A9000E45BFA4F0C944006640564056405640544
:100AA000640568056F05750579057F058405890569
:100AB0008E058E058E058E058E058E058E058E059E
:100AC0008E0592059D05BD05109211018F5F04C032
:100AD0008EEF8093110186E080930A015BCE8091B6
:100AE00010018093110187E0F7CF1092110188E087
:100AF000F3CF809100018093110189E0EDCF81E077
:100B0000809311018AE0E8CF82E1809311018BE0AC
:100B1000E3CF84E3809311018CE0DECF9EE49093D9
:100B20001101D4CF8BEF8093110186E180930A01EC
:100B300010920C0110920B012DCE80910B0190911F
:100B40000C0120910301309104018217930770F486
:100B50009C012F5F3F4F30930C0120930B01855E6A
:100B60009C4FDC018C918093110114CEB6E5B093BB
:100B70001101E7E1E0930A010DCEF8E7F0931101CE
:100B800080910001E1E0E80FE0930001E33108F01B
:100B90004ACF20911001409103015091040130E0AF
:100BA000A2E1B0E00E944606AE2FA150BB0B4D0162
:100BB000BB0FAA08BB08680D791D8A1D9B1D0E94EA
:100BC000890110920A01E6CD40910F0120910101A7
:100BD0003091020180910B0190910C0141FD15C0F3
:100BE0008217930708F01FCF20910F0124602093F4
:100BF0000F019C012F5F3F4F30930C0120930B019D
:100C0000855E9C4FFC018081AECF8217930708F070
:100C10000ACFEFCFAA1BBB1B51E107C0AA1FBB1F06
:100C2000A617B70710F0A61BB70B881F991F5A9578
:100C3000A9F780959095BC01CD010895A1E21A2EE7
:100C4000AA1BBB1BFD010DC0AA1FBB1FEE1FFF1F70
:100C5000A217B307E407F50720F0A21BB30BE40BC0
:100C6000F50B661F771F881F991F1A9469F7609507
:100C70007095809590959B01AC01BD01CF010895C1
:100C8000EE0FFF1F0590F491E02D0994A29FB00193
:100C9000B39FC001A39F700D811D1124911DB29FB0
:0E0CA000700D811D1124911D0895F894FFCF51
:060CAE000100010001013C
:00000001FF
