:100000000C9434000C9451000C9451000C94510049
:100010000C9451000C9451000C9451000C9451001C
:100020000C9451000C9451000C9451000C9451000C
:100030000C9451000C9451000C9451000C945100FC
:100040000C944D030C9451000C9451000C945100ED
:100050000C9451000C9451000C9451000C945100DC
:100060000C9451000C94510011241FBECFEFD8E026
:10007000DEBFCDBF11E0A0E0B1E0EAEAF0E102C0EE
:1000800005900D92AA30B107D9F727E0AAE0B1E0B8
:1000900001C01D92A232B207E1F70E94D8030C946E
:1000A00053080C9400008EBD0DB407FEFDCF8EB535
:1000B0000895EF92FF920F931F93CF93DF93E82E53
:1000C000D42F152F062FF72EC22F2A9A8FEF0E94BA
:1000D00053002A988E2D80640E9453008F2D0E9419
:1000E0005300802F0E945300812F0E9453008D2FB8
:1000F0000E9453008C2F0E945300C4E68FEF0E9491
:10010000530087FF02C0C150C9F7DF91CF911F9103
:100110000F91FF90EF900895CF92DF92EF92FF92B0
:100120001F93CF93DF937A0120910E01211107C015
:1001300029E0660F771F881F991F2A95D1F72FEFA7
:10014000AB01BC0188E10E945900182F882371F08F
:100150002A9A8FEF0E94530011E0812FDF91CF91F7
:100160001F91FF90EF90DF90CF9008958FEF0E9446
:1001700053008EEF0E945300E7018EEFF81A899129
:100180000E945300EC16FD06D1F78FEF0E9453003A
:100190008FEF0E945300C0E48FEF0E945300982F0E
:1001A0009171913011F0C150B9F78F71853091F094
:1001B0002A9A8FEF0E94530012E0CFCF81E0C81A35
:1001C000D108E108F10869F42A9A8FEF0E945300E0
:1001D00013E0C3CF80EEC82E83E9D82E84E0E82E4A
:1001E000F12C8FEF0E945300882341F32A9A8FEF5E
:1001F0000E945300B2CFBF92CF92DF92EF92FF9254
:100200000F931F93CF93DF93B42E052F20910E01F0
:10021000211107C029E0660F771F881F991F2A95B3
:10022000D1F72FEFAB01BC0181E10E945900182FDB
:1002300080EAC82E86E8D82EEE24E394F12C112310
:10024000E1F02A9A8FEF0E94530011E0812FDF9195
:10025000CF911F910F91FF90EF90DF90CF90BF90C3
:10026000089581E0C81AD108E108F10831F42A9A0A
:100270008FEF0E94530012E0E9CF8FEF0E945300EE
:100280008F3F79F38E3F99F7CB2DD02F7E018EEFE4
:10029000F81A8FEF0E9453008993CE15DF05C9F736
:1002A0008FEF0E9453008FEF0E9453002A9A8FEF26
:1002B0000E945300CBCF8F929F92AF92BF92CF926A
:1002C000DF92EF92FF924115510509F46CC07A015B
:1002D0004B015C01411582E05807C0F580E092E0D7
:1002E000BA010E9408089B0150E040E0C501B4013A
:1002F0000E941C084B01CA01B901785F8F4F9F4FC4
:1003000042E251E00E94FB00811117C0E2E2F3E0FB
:10031000E89CA001E99C500DF89C500D112430E0A0
:1003200020E04E5D5E4FDA01A20FB31F9C919193C6
:100330002F5F3F4FE216F306B1F7FF90EF90DF908B
:10034000CF90BF90AF909F908F90089541155240ED
:1003500081F4C501785F8F4F9F4F42E253E0FF90D9
:10036000EF90DF90CF90BF90AF909F908F900C94C4
:10037000FB0075016B01CC0CDD1CEE1CFF1CC701E2
:10038000B601785F8F4F9F4F42E253E00E94FB001F
:100390008111D3CFC701B6016F5F774F8F4F9F4F4A
:1003A00042E255E0DCCF81E0C8CF4F925F926F927E
:1003B0007F928F929F92AF92BF92CF92DF92EF92F5
:1003C000FF924115510509F46FC07A014B015C01A0
:1003D000411582E0580708F043C080E092E0BA017E
:1003E0000E9408089B0150E040E0C501B4010E9452
:1003F0001C082B0149015A0188E0980EA11CB11C70
:1004000042E251E0C501B4010E94FB0081114DC0E0
:10041000E2E2F3E0E49C9001E59C300DF49C300DA9
:10042000112490E080E02E5D3E4F4191D901A80F4C
:10043000B91F4C930196E816F906B9F742E251E06C
:10044000C501B401FF90EF90DF90CF90BF90AF90C7
:100450009F908F907F906F905F904F900C948C0046
:100460004115524039F4C501785F8F4F9F4F42E2EA
:1004700053E0E8CF75016B01CC0CDD1CEE1CFF1CBA
:10048000C701B601785F8F4F9F4F42E253E00E9451
:100490008C0081110AC0C701B6016F5F774F8F4F83
:1004A0009F4F42E255E0CECF81E0FF90EF90DF908A
:1004B000CF90BF90AF909F908F907F906F905F9004
:1004C0004F90089580910801811124C080E8909197
:1004D0001601992309F1806240910A0150910B01A4
:1004E00060910C0170910D014F5F5F4F6F4F7F4F17
:1004F00040930A0150930B0160930C0170930D011E
:100500005F7366277727411552406105710508F42E
:100510008260089580E0DBCF8462DECFCF92DF92ED
:10052000EF92FF920F931F93CF93DF932A9A84B198
:100530008C6284B924982C9A83E58CBD8DB58E7F0E
:100540008DBD8FE493EC0197F1F700C00000CAE085
:100550008FEF0E945300C150D9F7C4E125E940E074
:1005600050E0BA0180E00E945900813009F443C094
:1005700087E893E10197F1F700C00000C15071F7DF
:100580002A9A8FEF0E945300C1E07DC08FEF0E9436
:1005900053008FEF0E9453008FEF0E9453008FEFA4
:1005A0000E945300C12CD12CE12C80E4F82E08EEDF
:1005B00013E02FEF40E050E0BA0187E30E945900BA
:1005C0002FEFB701A60189E20E945900C82F8823A6
:1005D00019F187E893E10197F1F700C0000001509D
:1005E000110939F72A9A8FEF0E945300C3E04BC0DC
:1005F00010920E012EC027E84AEA51E060E070E058
:1006000088E00E945900D82F813009F4BFCFD0E094
:10061000C12CD12C7601CBCFDD2351F32FEF40E05D
:1006200050E0BA018AE30E9459008111E1CF8FEFB7
:100630000E945300D82F8FEF0E9453008FEF0E942B
:1006400053008FEF0E945300D6FF03C081E08093D8
:100650000E0180910E0181110CC02FEF40E052E09D
:1006600060E070E080E10E9459002A9A8FEF0E94BA
:1006700053008CB58C7F8CBD8DB581608DBD2A9A61
:100680008FEF0E9453008C2FDF91CF911F910F911C
:10069000FF90EF90DF90CF9008951F920F920FB6CA
:1006A0000F9211242F933F938F939F93AF93BF93F8
:1006B00080911E0190911F01A0912001B091210114
:1006C00030911D0123E0230F2D3758F50196A11D10
:1006D000B11D20931D0180931E0190931F01A093D3
:1006E0002001B09321018091190190911A01A091EC
:1006F0001B01B0911C010196A11DB11D8093190130
:1007000090931A01A0931B01B0931C01BF91AF916C
:100710009F918F913F912F910F900FBE0F901F903F
:10072000189526E8230F0296A11DB11DD2CF2227CE
:100730002AB92BB9389839983A983B98429A3C9AFA
:100740003D9A4498459808957FEF55273299FECFFA
:1007500036B133FF1CC031FF06C030FF0DC02BB9CE
:100760007AB944980BC030FF03C06BB97AB906C0A0
:100770008BB97AB9459802C04BB97AB9329BFECF92
:100780005AB95BB933703064932F8827089589B1C3
:10079000329902C089B1FCCF3370303019F0333058
:1007A00019F003C0459801C044983068932F08950C
:1007B000789484B5826084BD84B5816084BD85B53C
:1007C000826085BD85B5816085BD80916E00816048
:1007D00080936E00109281008091810082608093EE
:1007E00081008091810081608093810080918000F0
:1007F0008160809380008091B10084608093B1001B
:100800008091B00081608093B00080917A00846014
:1008100080937A0080917A00826080937A00809140
:100820007A00816080937A0080917A00806880935A
:100830007A001092C10010926E001092C100F894DC
:100840000E9497030E948E02882309F45AC01092D6
:1008500008010E94620280931801CC24C394D12C19
:1008600013E000E196E0292E312CE12CFF24F394D3
:10087000812C32E1932E2091170140910701609164
:100880001601809118010E94A403EC018D2FD7FF5F
:10089000ACC28370823009F4D5C1833009F4D9C168
:1008A000813009F4BFC18091180180FF06C0CE01DC
:1008B000807F9927803D9105F1F64598C7FD68C076
:1008C000BB24B394B09206011092150180910801E7
:1008D000811106C00E948E02811102C0B0920801EF
:1008E0008C2F807F91F4109216018FEF8093050179
:1008F000D0921401C09213010E94620280931801E9
:100900003DC181E080930801A4CF8031B1F4909182
:10091000170180911601891740F481E08093050149
:100920008091170180931601E3CF90911701809178
:1009300016019817A8F78FEFF1CF8C2F807E8032A9
:1009400071F4C4FFD5CF809105011816C4F48091CD
:1009500016018F3F69F2809116018F5FE3CF8034DB
:1009600031F481E080930501C4FFC2CFF0CF80361F
:1009700009F0BECF8FEF80930501C4FFB9CF8091FE
:100980001601882309F4B4CF809116018150CACF93
:10099000CE0199279E01207E33272038310509F0AA
:1009A0004BC0109206018295817080931501C3FBA4
:1009B000CC27C0F9C093120180910801811107C0B2
:1009C0000E948E02811110C181E080930801809104
:1009D0000701882309F4CCC080910701833108F016
:1009E000C7C0F0920401E0920301F0920201E0928C
:1009F0000101409107012091160130E0A2E1B0E031
:100A00000E9444084150640F711D811D911D40E0FA
:100A100051E00E945B018111ABC082E090E09093B5
:100A2000140180931301D0921101C09210018091A2
:100A3000220380931701D5C0203A310599F5109211
:100A400006018295817080931501C3FBCC27C0F904
:100A5000C093120180910801811107C00E948E028B
:100A60008111C2C081E08093080180910701882331
:100A700009F47EC080910701833108F079C0F092BB
:100A80000401E0920301F0920201E0920101A3E06F
:100A9000B0E0B0931401A0931301109211011092D1
:100AA00010019FC0CE01807F9927803C9105C1F540
:100AB000109206011092150180910801811107C062
:100AC0000E948E02811190C081E080930801E4E0D1
:100AD000F0E0F0931401E09313011093180180915A
:100AE0001601809322039091120190932303909119
:100AF00007019093240391E09093250392E1909352
:100B0000260394E39093270330920201209201017F
:100B1000D0921101C092100180931701449AABCE7C
:100B2000803E9105E1F51092060110921501809129
:100B30000801811107C00E948E02811155C081E019
:100B400080930801F0920401E092030181E0809318
:100B5000000110920F012091160130E0A2E1B0E0F7
:100B60000E94440840E051E00E945B01882341F06C
:100B700010921401109213010093180144984EC072
:100B800085E090E090931401809313011093180175
:100B9000109211011092100110921701BFCF803FE7
:100BA000910541F5109206011092150180910801FE
:100BB000811107C00E948E02811116C081E08093CE
:100BC0000801309214012092130110921101109229
:100BD0001001F0920401E0920301909202018092D0
:100BE0000101109318019ACF109214011092130171
:100BF00080E884CE803D910509F03DCE81E0809370
:100C000006011092150110921401109213010E9416
:100C10006202809318014498C3FF02C0459A2BCE0C
:100C2000459829CE8091180180FD25CEC0931601EC
:100C300080910601882309F41ECE0E9462028093EF
:100C4000180119CE8091180180FD15CEC0930701BF
:100C500012CE80911301909114018330910509F017
:100C600071C08091180181FD05C0809118018460D8
:100C700080931801C0931701809110019091110188
:100C800040910101509102018417950708F0F3CDBE
:100C90009C012F5F3F4F3093110120931001609111
:100CA00017018E5D9C4FDC016C932417350730F4DF
:100CB0008091180182608093180130CF80911801D3
:100CC0008D7F80931801449880910701E0E088238C
:100CD00019F0E0910701E1502091160140910301C4
:100CE0005091040130E0A2E1B0E00E9444086E0F90
:100CF000711D811D911D0E94D501882341F0109224
:100D000014011092130180E28093180187CF809123
:100D10001501882379F080910701823130F48091A8
:100D200007018F5F80930701B8CE809107018F5F25
:100D30008093070110921401109213018091180101
:100D40008C7FE2CFC0931701069709F05AC18091BA
:100D5000100190911101019690931101809310015F
:100D600020910101309102018217930708F4A0CF6E
:100D7000809118018D7F809318014498A090030101
:100D8000B0900401E2E2F3E0CF01825293408A1571
:100D90009B0518F485EE8193F7CF412C512C32013D
:100DA000C0E02091160130E0A2E1B0E00E944408CA
:100DB000640D751D861D971DA5010E94D501811129
:100DC000C1E09FEF491A590A690A790AA2E14A1655
:100DD00051046104710429F7109214011092130157
:100DE000C111C0E2C093180119CFD6FF44CD837062
:100DF00011F445981DCF833009F03DCD809113014A
:100E0000909114018530910509F0AAC080910F01DD
:100E1000893108F04DCFE82FF0E0EF5EF84F0C94E9
:100E20003E082A072A072A072A072A072E07350716
:100E30003B07410747074C07510756075607560718
:100E40005607560756075607560756075A076507A7
:100E500083078807109217018F5F04C08EEF80937D
:100E6000170186E080930F0123CF809116018093B4
:100E7000170187E0F7CF809112018093170188E076
:100E8000F1CF809100018093170189E0EBCF81E0E1
:100E9000809317018AE0E6CF82E1809317018BE00F
:100EA000E1CF84E3809317018CE0DCCF9EE4909344
:100EB0001701D2CF8BEF8093170186E180930F014A
:100EC0001092110110921001F3CE809110019091B7
:100ED000110120910301309104018217930770F4EE
:100EE0009C012F5F3F4F30931101209310018E5DC5
:100EF0009C4FFC01808180931701DACE86E58093B8
:100F0000170187E1AFCFF8E7F093170188E1AACF87
:100F100080910001E1E0E80FE0930001E33108F087
:100F200068C020911601409103015091040130E006
:100F3000A2E1B0E00E944408AE2FA150BB0B2D01EE
:100F4000BB0F66087708640D751D861D971D0E94EE
:100F50005B0181110DCE10920F0110921701A8CEE6
:100F60008230910519F0049709F04BC040911801A7
:100F700020910101309102018091100190911101A5
:100F800041FD09C08217930750F420911801246095
:100F900020931801A5CF8217930708F4A1CF809161
:100FA0001501882331F1809107018231E8F48091A5
:100FB00007018F5F80930701E091070120911601DF
:100FC000409103015091040130E0A2E1B0E00E94A1
:100FD0004408E1506E0F711D811D911D0E945B013F
:100FE000882309F420CDC4CD809107018F5F8093C1
:100FF00007011092140110921301809118018C7F47
:101000007DCC809118018D7F80931801449833CC5A
:10101000AA1BBB1B51E107C0AA1FBB1FA617B7071E
:1010200010F0A61BB70B881F991F5A95A9F780953A
:101030009095BC01CD010895A1E21A2EAA1BBB1BFD
:10104000FD010DC0AA1FBB1FEE1FFF1FA217B30794
:10105000E407F50720F0A21BB30BE40BF50B661FAA
:10106000771F881F991F1A9469F76095709580956E
:1010700090959B01AC01BD01CF010895EE0FFF1FBC
:101080000590F491E02D0994A29FB001B39FC00197
:10109000A39F700D811D1124911DB29F700D811DA4
:0A10A0001124911D0895F894FFCF6C
:0A10AA000100010001010101010035
:00000001FF
