:100000000C9434000C9451000C9451000C94510049
:100010000C9451000C9451000C9451000C9451001C
:100020000C9451000C9451000C9451000C9451000C
:100030000C9451000C9451000C9451000C945100FC
:100040000C9437030C9451000C9451000C94510003
:100050000C9451000C9451000C9451000C945100DC
:100060000C9451000C94510011241FBECFEFD8E026
:10007000DEBFCDBF11E0A0E0B1E0EEE5F2E102C0ED
:1000800005900D92AA30B107D9F727E0AAE0B1E0B8
:1000900001C01D92A432B207E1F70E943F040C9404
:1000A0002D090C9400008EBD0DB407FEFDCF8EB55A
:1000B0000895EF92FF920F931F93CF93DF93E82E53
:1000C000D42F152F062FF72EC22F2A9A8FEF0E94BA
:1000D00053002A988E2D80640E9453008F2D0E9419
:1000E0005300802F0E945300812F0E9453008D2FB8
:1000F0000E9453008C2F0E945300C4E68FEF0E9491
:10010000530087FF02C0C150C9F7DF91CF911F9103
:100110000F91FF90EF90089580910801811124C004
:1001200080E890911601992309F1806240910A01BB
:1001300050910B0160910C0170910D014F5F5F4F69
:100140006F4F7F4F40930A0150930B0160930C0156
:1001500070930D015F736627772741155240610543
:10016000710508F48260089580E0DBCF8462DECF01
:10017000CF92DF92EF92FF92CF93DF937A0120919B
:100180000E01211107C029E0660F771F881F991FF4
:100190002A95D1F72FEFAB01BC0188E10E945900ED
:1001A000C82F882369F02A9A8FEF0E945300C1E07C
:1001B0008C2FDF91CF91FF90EF90DF90CF9008953B
:1001C0008FEF0E9453008EEF0E945300C7010E94E0
:1001D000D5038FEF0E9453008FEF0E945300D0E4AD
:1001E0008FEF0E945300982F9171913011F0D150F0
:1001F000B9F78F71853091F02A9A8FEF0E945300E2
:10020000C2E0D6CF81E0C81AD108E108F10869F44C
:100210002A9A8FEF0E945300C3E0CACF80EEC82E07
:1002200083E9D82E84E0E82EF12C8FEF0E94530052
:10023000882341F32A9A8FEF0E945300B9CFCF92BF
:10024000DF92EF92FF920F931F93CF938A01209139
:100250000E01211107C029E0660F771F881F991F23
:100260002A95D1F72FEFAB01BC0181E10E94590023
:10027000C82F80EAC82E86E8D82EEE24E394F12C0D
:10028000CC23D1F02A9A8FEF0E945300C1E08C2F2B
:10029000CF911F910F91FF90EF90DF90CF90089535
:1002A00081E0C81AD108E108F10831F42A9A8FEFE9
:1002B0000E945300C2E0EBCF8FEF0E9453008F3FAC
:1002C00079F38E3F99F7C8010E94C2038FEF0E9415
:1002D00053008FEF0E9453002A9A8FEF0E94530021
:1002E000D6CF8F929F92AF92BF92CF92DF92EF9232
:1002F000FF924115510509F46CC07A014B015C0174
:10030000411582E05807C0F580E092E0BA010E94F2
:10031000E2089B0150E040E0C501B4010E94F608EC
:100320004B01CA01B901785F8F4F9F4F44E251E002
:100330000E941F01811117C0E4E2F3E0E89CA001D4
:10034000E99C500DF89C500D112430E020E04C5DEC
:100350005E4FDA01A20FB31F9C9191932F5F3F4F25
:10036000E216F306B1F7FF90EF90DF90CF90BF90C9
:10037000AF909F908F9008954115524081F4C50130
:10038000785F8F4F9F4F44E253E0FF90EF90DF90F4
:10039000CF90BF90AF909F908F900C941F017501EC
:1003A0006B01CC0CDD1CEE1CFF1CC701B601785F95
:1003B0008F4F9F4F44E253E00E941F018111D3CF22
:1003C000C701B6016F5F774F8F4F9F4F44E255E0F3
:1003D000DCCF81E0C8CF4F925F926F927F928F9275
:1003E0009F92AF92BF92CF92DF92EF92FF92411510
:1003F000510509F46FC07A014B015C01411582E09F
:10040000580708F043C080E092E0BA010E94E20879
:100410009B0150E040E0C501B4010E94F6082B01A9
:1004200049015A0188E0980EA11CB11C44E251E038
:10043000C501B4010E941F0181114DC0E4E2F3E047
:10044000E49C9001E59C300DF49C300D112490E06B
:1004500080E02C5D3E4F4191D901A80FB91F4C930C
:100460000196E816F906B9F744E251E0C501B40176
:10047000FF90EF90DF90CF90BF90AF909F908F90C4
:100480007F906F905F904F900C94B8004115524050
:1004900039F4C501785F8F4F9F4F44E253E0E8CFB6
:1004A00075016B01CC0CDD1CEE1CFF1CC701B601F5
:1004B000785F8F4F9F4F44E253E00E94B800811154
:1004C0000AC0C701B6016F5F774F8F4F9F4F44E25D
:1004D00055E0CECF81E0FF90EF90DF90CF90BF90BE
:1004E000AF909F908F907F906F905F904F90089506
:1004F000CF92DF92EF92FF920F931F93CF93DF93F0
:100500002A9A84B18C6284B924982C9A83E58CBD94
:100510008DB58E7F8DBD8FE493EC0197F1F700C010
:100520000000CAE08FEF0E945300C150D9F7C4E128
:1005300025E940E050E0BA0180E00E945900813096
:1005400009F443C087E893E10197F1F700C0000088
:10055000C15071F72A9A8FEF0E945300C1E07DC00D
:100560008FEF0E9453008FEF0E9453008FEF0E9485
:1005700053008FEF0E945300C12CD12CE12C80E45A
:10058000F82E08EE13E02FEF40E050E0BA0187E3C9
:100590000E9459002FEFB701A60189E20E9459007D
:1005A000C82F882319F187E893E10197F1F700C07C
:1005B00000000150110939F72A9A8FEF0E94530069
:1005C000C3E04BC010920E012EC027E84AEA51E06A
:1005D00060E070E088E00E945900D82F813009F473
:1005E000BFCFD0E0C12CD12C7601CBCFDD2351F38E
:1005F0002FEF40E050E0BA018AE30E9459008111D8
:10060000E1CF8FEF0E945300D82F8FEF0E9453004D
:100610008FEF0E9453008FEF0E945300D6FF03C05C
:1006200081E080930E0180910E0181110CC02FEFAB
:1006300040E052E060E070E080E10E9459002A9AB8
:100640008FEF0E9453008CB58C7F8CBD8DB581607F
:100650008DBD2A9A8FEF0E9453008C2FDF91CF918E
:100660001F910F91FF90EF90DF90CF9008951F9210
:100670000F920FB60F9211242F933F938F939F9356
:10068000AF93BF938091200190912101A09122010D
:10069000B091230130911F0123E0230F2D3758F52E
:1006A0000196A11DB11D20931F01809320019093FD
:1006B0002101A0932201B093230180911B0190910D
:1006C0001C01A0911D01B0911E010196A11DB11D3B
:1006D00080931B0190931C01A0931D01B0931E01F8
:1006E000BF91AF919F918F913F912F910F900FBE2E
:1006F0000F901F90189526E8230F0296A11DB11D9B
:10070000D2CF22272AB92BB9389839983A983B98F2
:10071000429A3C9A3D9A4498459808957FEF552710
:100720003299FECF36B133FF1CC031FF06C030FF17
:100730000DC02BB97AB944980BC030FF03C06BB918
:100740007AB906C08BB97AB9459802C04BB97AB963
:10075000329BFECF5AB95BB933703064932F882730
:10076000089589B1329902C089B1FCCF337030301D
:1007700019F0333019F003C0459801C0449830682F
:10078000932F0895FC019FEFAFEFB1E09EBD0DB434
:1007900007FEFDCF6EB59EBD61931197C1F70DB4F5
:1007A00007FEFDCF6EB561930895FC01AFEFB1E098
:1007B00061916EBD61910DB407FEFDCF6EBD1197C5
:1007C000C9F70DB407FEFDCF0895FC01DB014FEF23
:1007D00055272191449A3299FECF36B133FF17C085
:1007E0003370333061F42BB94AB94498329BFECF51
:1007F0005AB95BB9119799F02191449AECCF63E013
:100800006BB94AB9329BFECF5AB95BB9E4CF89B113
:10081000329902C089B1FCCF449891E00895449880
:10082000882799270895FC01DB014FEF5527449A4B
:100830003299FECF36B133FD0EC03370333099F4A8
:1008400029B1329902C029B1FCCF21934498119764
:1008500091F0449AEDCF63E06BB94AB9329BFECF79
:100860005AB95BB9E5CF89B1329902C089B1FCCFE1
:10087000449891E00895449888279927089578949A
:1008800084B5826084BD84B5816084BD85B5826095
:1008900085BD85B5816085BD80916E008160809346
:1008A0006E001092810080918100826080938100AF
:1008B00080918100816080938100809180008160BF
:1008C000809380008091B10084608093B10080911A
:1008D000B00081608093B00080917A008460809342
:1008E0007A0080917A00826080937A0080917A0009
:1008F000816080937A0080917A00806880937A008A
:100900001092C10010926E001092C100F8940E94E3
:1009100081030E947802882309F455C010920801CF
:100920000E948C0080931A0190E2E92EC1E0D3E08E
:1009300026E0A22EB12C00E011E035E0232E312C70
:1009400044E0842E912CCC24C394D12C80911901A5
:100950008823E9F110921901F090180120E8237022
:10096000223009F42AC2233009F42EC280911A01E0
:10097000213009F414C280FF04C08F2D807F803D98
:1009800029F74598F7FC7CC0C09306011092150129
:1009900080910801811106C00E947802811102C075
:1009A000C09308018F2D807F39F5109216018FEFCB
:1009B00080930501D0921401C09213010E948C0013
:1009C00080931A01AEC081E080930801A9CF2091E5
:1009D0001701409107016091160180911A010E9450
:1009E0008E03292FF82E97FDBACF96FFAFCF9370C5
:1009F00009F0C2C24598D7C18031B9F4909117016E
:100A000080911601891738F4C09305018091170170
:100A100080931601CFCF90911701809116019817FE
:100A2000A8F78FEF80930501F1CF8F2D807E803264
:100A300079F4F4FEBFCF809105011816C4F48091BB
:100A400016018F3F09F4B6CF809116018F5FE0CF7A
:100A5000803429F4C0930501F4FEACCFF0CF80368A
:100A600009F0A8CF8FEF80930501F4FEA3CF80910A
:100A70001601882309F49ECF809116018150C8CFBA
:100A80008F2D2F2D207E722EA0E82A1379C0109270
:100A90000601F4FAFF24F0F8F092150183FB882791
:100AA00080F98093120180910801811106C00E9493
:100AB0007802811130C0C09308018091070188231A
:100AC00009F419C180910701833108F014C1109312
:100AD000040100930301E091070120911601409168
:100AE00003015091040130E0A2E1B0E00E941E0930
:100AF000E1506E0F711D811D911D0E9471018823AF
:100B000091F080E180931A014498459A1092140163
:100B1000109213011BCF10921401109213017092C6
:100B20001A01449838C1D0931A0160910301709161
:100B3000040184E293E00E94E5039C012227232B19
:100B400079F0109214011092130190911A019C7F78
:100B500090931A014498C093190180931801D6CF3D
:100B600080911501882309F429C3809107018231FE
:100B700008F01FC3809107018F5F80930701ABCFFF
:100B8000B0EA2B135CC010920601F4FAFF24F0F8CF
:100B9000F092150183FB882780F9809312018091E0
:100BA0000801811106C00E9478028111DCC0C09347
:100BB000080180910701882309F49DC080910701F5
:100BC000833108F098C01093040100930301D0937F
:100BD0001A01609103017091040184E293E00E9484
:100BE00013049C012227232B09F0ABCFE0910701CE
:100BF00020911601409103015091040130E0A2E1DF
:100C0000B0E00E941E09E1506E0F711D811D911D03
:100C10000E94EB01882319F0E0921A0175CF8091B0
:100C20001501882309F4CAC280910701823108F0B6
:100C3000C0C2809107018F5F80930701C8CF807F7A
:100C4000803CA1F5109206011092150180910801D7
:100C5000811106C00E947802811185C0C0930801ED
:100C60009092140180921301D0931A018091160181
:100C70008093240390911201909325039091070192
:100C800090932603C093270392E19093280394E363
:100C900090932903B0920201A0920101D092110118
:100CA000C092100180931701449A50CE803EB1F556
:100CB000109206011092150180910801811106C061
:100CC0000E94780281114FC0C09308011093040163
:100CD00000930301C093000110920F0120911601AF
:100CE00030E0A2E1B0E00E941E0940E051E00E9425
:100CF0007101882331F0109214011092130180E1E8
:100D00005FCE3092140120921301D0931A011092F9
:100D100011011092100110921701C6CF803F49F5C2
:100D2000109206011092150180910801811106C0F0
:100D30000E947802811117C0C0930801B09214017B
:100D4000A09213011092110110921001109304014E
:100D500000930301E0E0F2E1F0930201E09301016E
:100D6000D0931A01A1CF109214011092130180E8C0
:100D700027CE803D09F0EACDC093060110921501FF
:100D800010921401109213010E948C0080931A019A
:100D90004498F3FE02C0459AD9CD4598D7CD80FD41
:100DA000D5CDF092160180910601882309F4CECDAD
:100DB0000E948C0080931A01C9CD80911A0180FD98
:100DC000C5CDF0920701C2CD80911301909114011D
:100DD0008330910509F076C080911A0181FD05C02C
:100DE00080911A01846080931A01F092170180911A
:100DF000100190911101409101015091020184175D
:100E0000950708F0A3CD9C012F5F3F4F3093110150
:100E100020931001609117018C5D9C4FDC016C9355
:100E20002417350730F480911A01826080931A01EB
:100E30003BCF80911A018D7F80931A014498809155
:100E40000701E0E0882319F0E0910701E1502091CB
:100E50001601409103015091040130E0A2E1B0E09D
:100E60000E941E096E0F711D811D911D0E94EB01D4
:100E7000882339F01092140110921301E0921A01A4
:100E80008ACF80911501882399F0809107018231E2
:100E900050F4809107018F5F809307011092110138
:100EA000109210015DCF809107018F5F8093070141
:100EB000109214011092130180911A018C7F80937B
:100EC0001A0169CFF0921701069709F06BC1809162
:100ED00010019091110101969093110180931001DE
:100EE00020910101309102018217930708F49BCFF2
:100EF00080911A018D7F80931A014498809103019B
:100F000090910401E4E2F3E09F012452334028175A
:100F1000390718F4B5EEB193F7CF412C512C3201BB
:100F2000F12C20911601409103015091040130E011
:100F3000A2E1B0E00E941E09640D751D861D971D7B
:100F40000E94EB01882311F0FF24F394EFEF4E1A77
:100F50005E0A6E0A7E0AF2E14F16510461047104C2
:100F600001F71092140110921301FF2011F080E29A
:100F7000F82EF0921A010FCF933009F0E7CC809150
:100F80001301909114018530910509F0A9C0809159
:100F90000F01893108F047CFE82FF0E0EE52F84F0B
:100FA0000C941809EB07EB07EB07EB07EB07EF07D0
:100FB000F607FC07020808080C08110816081608AE
:100FC00016081608160816081608160816081A082D
:100FD000250843084808109217018F5F04C08EEF60
:100FE0008093170186E080930F011DCF8091160139
:100FF0008093170187E0F7CF80911201809317014A
:1010000088E0F1CF809100018093170189E0EBCF58
:10101000C09317018AE0E7CF82E1809317018BE04C
:10102000E2CF84E3809317018CE0DDCF9EE49093C0
:101030001701D3CF8BEF8093170186E180930F01C7
:101040001092110110921001EECE8091100190913A
:10105000110120910301309104018217930770F46C
:101060009C012F5F3F4F30931101209310018C5D45
:101070009C4FDC018C9180931701D5CE86E580933F
:10108000170187E1B0CF88E78093170188E1ABCFE4
:1010900080910001E1E0E80FE0930001E33108F006
:1010A00079C020911601409103015091040130E074
:1010B000A2E1B0E00E941E09AE2FA150BB0B2D0192
:1010C000BB0F66087708640D751D861D971D0E946D
:1010D0007101811110CE10920F0110921701A3CE51
:1010E0008230910519F0049709F05CC040911A0113
:1010F0002091010130910201809110019091110124
:1011000041FD14C082179307A0F420911A012460B6
:1011100020931A019C012F5F3F4F309311012093C0
:1011200010018C5D9C4FFC018081A5CF8217930735
:1011300088F380911501882369F18091070182313C
:1011400020F5809107018F5F80930701E0910701EF
:1011500020911601409103015091040130E0A2E179
:10116000B0E00E941E09E1506E0F711D811D911D9E
:101170000E9471018111BFCDD0921101C092100166
:101180008091240380931701EBCD809107018F5F3D
:1011900080930701109214011092130180911A019B
:1011A0008C7F0ECC80911A018D7F80931A01449818
:1011B000CDCB809107018F5F8093070180911A0149
:1011C0008C7FA0CCAA1BBB1B51E107C0AA1FBB1F71
:1011D000A617B70710F0A61BB70B881F991F5A95C3
:1011E000A9F780959095BC01CD010895A1E21A2E32
:1011F000AA1BBB1BFD010DC0AA1FBB1FEE1FFF1FBB
:10120000A217B307E407F50720F0A21BB30BE40B0A
:10121000F50B661F771F881F991F1A9469F7609551
:101220007095809590959B01AC01BD01CF0108950B
:10123000EE0FFF1F0590F491E02D0994A29FB001DD
:10124000B39FC001A39F700D811D1124911DB29FFA
:0E125000700D811D1124911D0895F894FFCF9B
:0A125E00010001000101010101007F
:00000001FF
