:100000000C9434000C9451000C9451000C94510049
:100010000C9451000C9451000C9451000C9451001C
:100020000C9451000C9451000C9451000C9451000C
:100030000C9451000C9451000C9451000C945100FC
:100040000C9437030C9451000C9451000C94510003
:100050000C9451000C9451000C9451000C945100DC
:100060000C9451000C94510011241FBECFEFD8E026
:10007000DEBFCDBF11E0A0E0B1E0E4E6F2E102C0F6
:1000800005900D92AA30B107D9F727E0AAE0B1E0B8
:1000900001C01D92A232B207E1F70E943B040C940A
:1000A00030090C9400008EBD0DB407FEFDCF8EB557
:1000B0000895EF92FF920F931F93CF93DF93E82E53
:1000C000D42F152F062FF72EC22F2A9A8FEF0E94BA
:1000D00053002A988E2D80640E9453008F2D0E9419
:1000E0005300802F0E945300812F0E9453008D2FB8
:1000F0000E9453008C2F0E945300C4E68FEF0E9491
:10010000530087FF02C0C150C9F7DF91CF911F9103
:100110000F91FF90EF90089580910801811124C004
:1001200080E890911601992309F1806240910A01BB
:1001300050910B0160910C0170910D014F5F5F4F69
:100140006F4F7F4F40930A0150930B0160930C0156
:1001500070930D015F736627772741155240610543
:10016000710508F48260089580E0DBCF8462DECF01
:10017000CF92DF92EF92FF92CF93DF937A0120919B
:100180000E01211107C029E0660F771F881F991FF4
:100190002A95D1F72FEFAB01BC0188E10E945900ED
:1001A000C82F882369F02A9A8FEF0E945300C1E07C
:1001B0008C2FDF91CF91FF90EF90DF90CF9008953B
:1001C0008FEF0E9453008EEF0E945300C7010E94E0
:1001D000D5038FEF0E9453008FEF0E945300D0E4AD
:1001E0008FEF0E945300982F9171913011F0D150F0
:1001F000B9F78F71853091F02A9A8FEF0E945300E2
:10020000C2E0D6CF81E0C81AD108E108F10869F44C
:100210002A9A8FEF0E945300C3E0CACF80EEC82E07
:1002200083E9D82E84E0E82EF12C8FEF0E94530052
:10023000882341F32A9A8FEF0E945300B9CFCF92BF
:10024000DF92EF92FF920F931F93CF938A01209139
:100250000E01211107C029E0660F771F881F991F23
:100260002A95D1F72FEFAB01BC0181E10E94590023
:10027000C82F80EAC82E86E8D82EEE24E394F12C0D
:10028000CC23D1F02A9A8FEF0E945300C1E08C2F2B
:10029000CF911F910F91FF90EF90DF90CF90089535
:1002A00081E0C81AD108E108F10831F42A9A8FEFE9
:1002B0000E945300C2E0EBCF8FEF0E9453008F3FAC
:1002C00079F38E3F99F7C8010E94C2038FEF0E9415
:1002D00053008FEF0E9453002A9A8FEF0E94530021
:1002E000D6CF8F929F92AF92BF92CF92DF92EF9232
:1002F000FF924115510509F46CC07A014B015C0174
:10030000411582E05807C0F580E092E0BA010E94F2
:10031000E5089B0150E040E0C501B4010E94F908E6
:100320004B01CA01B901785F8F4F9F4F42E251E004
:100330000E941F01811117C0E2E2F3E0E89CA001D6
:10034000E99C500DF89C500D112430E020E04E5DEA
:100350005E4FDA01A20FB31F9C9191932F5F3F4F25
:10036000E216F306B1F7FF90EF90DF90CF90BF90C9
:10037000AF909F908F9008954115524081F4C50130
:10038000785F8F4F9F4F42E253E0FF90EF90DF90F6
:10039000CF90BF90AF909F908F900C941F017501EC
:1003A0006B01CC0CDD1CEE1CFF1CC701B601785F95
:1003B0008F4F9F4F42E253E00E941F018111D3CF24
:1003C000C701B6016F5F774F8F4F9F4F42E255E0F5
:1003D000DCCF81E0C8CF4F925F926F927F928F9275
:1003E0009F92AF92BF92CF92DF92EF92FF92411510
:1003F000510509F46FC07A014B015C01411582E09F
:10040000580708F043C080E092E0BA010E94E50876
:100410009B0150E040E0C501B4010E94F9082B01A6
:1004200049015A0188E0980EA11CB11C42E251E03A
:10043000C501B4010E941F0181114DC0E2E2F3E049
:10044000E49C9001E59C300DF49C300D112490E06B
:1004500080E02E5D3E4F4191D901A80FB91F4C930A
:100460000196E816F906B9F742E251E0C501B40178
:10047000FF90EF90DF90CF90BF90AF909F908F90C4
:100480007F906F905F904F900C94B8004115524050
:1004900039F4C501785F8F4F9F4F42E253E0E8CFB8
:1004A00075016B01CC0CDD1CEE1CFF1CC701B601F5
:1004B000785F8F4F9F4F42E253E00E94B800811156
:1004C0000AC0C701B6016F5F774F8F4F9F4F42E25F
:1004D00055E0CECF81E0FF90EF90DF90CF90BF90BE
:1004E000AF909F908F907F906F905F904F90089506
:1004F000CF92DF92EF92FF920F931F93CF93DF93F0
:100500002A9A84B18C6284B924982C9A83E58CBD94
:100510008DB58E7F8DBD8FE493EC0197F1F700C010
:100520000000CAE08FEF0E945300C150D9F7C4E128
:1005300025E940E050E0BA0180E00E945900813096
:1005400009F443C087E893E10197F1F700C0000088
:10055000C15071F72A9A8FEF0E945300C1E07DC00D
:100560008FEF0E9453008FEF0E9453008FEF0E9485
:1005700053008FEF0E945300C12CD12CE12C80E45A
:10058000F82E08EE13E02FEF40E050E0BA0187E3C9
:100590000E9459002FEFB701A60189E20E9459007D
:1005A000C82F882319F187E893E10197F1F700C07C
:1005B00000000150110939F72A9A8FEF0E94530069
:1005C000C3E04BC010920E012EC027E84AEA51E06A
:1005D00060E070E088E00E945900D82F813009F473
:1005E000BFCFD0E0C12CD12C7601CBCFDD2351F38E
:1005F0002FEF40E050E0BA018AE30E9459008111D8
:10060000E1CF8FEF0E945300D82F8FEF0E9453004D
:100610008FEF0E9453008FEF0E945300D6FF03C05C
:1006200081E080930E0180910E0181110CC02FEFAB
:1006300040E052E060E070E080E10E9459002A9AB8
:100640008FEF0E9453008CB58C7F8CBD8DB581607F
:100650008DBD2A9A8FEF0E9453008C2FDF91CF918E
:100660001F910F91FF90EF90DF90CF9008951F9210
:100670000F920FB60F9211242F933F938F939F9356
:10068000AF93BF9380911E0190911F01A091200113
:10069000B091210130911D0123E0230F2D3758F532
:1006A0000196A11DB11D20931D0180931E01909301
:1006B0001F01A0932001B093210180911901909115
:1006C0001A01A0911B01B0911C010196A11DB11D41
:1006D0008093190190931A01A0931B01B0931C0100
:1006E000BF91AF919F918F913F912F910F900FBE2E
:1006F0000F901F90189526E8230F0296A11DB11D9B
:10070000D2CF22272AB92BB9389839983A983B98F2
:10071000429A3C9A3D9A4498459808957FEF552710
:100720003299FECF36B133FF1CC031FF06C030FF17
:100730000DC02BB97AB944980BC030FF03C06BB918
:100740007AB906C08BB97AB9459802C04BB97AB963
:10075000329BFECF5AB95BB933703064932F882730
:10076000089589B1329902C089B1FCCF337030301D
:1007700019F0333019F003C0459801C0449830682F
:10078000932F0895FC019FEFAFEFB1E09EBD0DB434
:1007900007FEFDCF6EB59EBD61931197C1F70DB4F5
:1007A00007FEFDCF6EB561930895FC01AFEFB1E098
:1007B00061916EBD61910DB407FEFDCF6EBD1197C5
:1007C000C9F70DB407FEFDCF0895FC01DB014FEF23
:1007D00055272191449A3299FECF36B133FF17C085
:1007E0003370333061F42BB94AB94498329BFECF51
:1007F0005AB95BB9119789F02191449AECCF63E023
:100800006BB94AB9329BFECF5AB95BB9E4CF89B113
:10081000329BFECF449891E0089544988827992709
:100820000895FC01DB014FEF5527449A3299FECF22
:1008300036B133FD0EC03370333099F429B132999B
:1008400002C029B1FCCF21934498119781F0449ABA
:10085000EDCF63E06BB94AB9329BFECF5AB95BB9B1
:10086000E5CF89B1329BFECF449891E0089544983A
:10087000882799270895789484B5826084BD84B5CB
:10088000816084BD85B5826085BD85B5816085BD8B
:1008900080916E00816080936E0010928100809143
:1008A00081008260809381008091810081608093CB
:1008B0008100809180008160809380008091B100F0
:1008C00084608093B1008091B00081608093B0001B
:1008D00080917A00846080937A0080917A008260AF
:1008E00080937A0080917A00816080937A00809171
:1008F0007A00806880937A001092C10010926E0096
:100900001092C100F8940E9481030E94780288230B
:1009100009F45EC0109208010E948C0080931801B7
:10092000CC24C394D12CC3E0D0E125EEE22E36E0F6
:10093000A32EB12C00E011E045E0242E312C54E030
:10094000852E912C2091170140910701609116018D
:10095000809118010E948E033C01872D77FE04C30D
:100960008370823009F423C2833009F427C28130B6
:1009700009F40DC28091180180FF06C0C301807F79
:100980009927803D9105F1F6459867FC68C0FF24E2
:10099000F394F092060110921501809108018111E3
:1009A00006C00E947802811102C0F0920801862DD3
:1009B000807F91F4109216018FEF80930501D09201
:1009C0001401C09213010E948C00809318018BC106
:1009D00081E080930801A0CF8031B1F4909117019C
:1009E00080911601891740F481E080930501809180
:1009F000170180931601E3CF9091170180911601A2
:100A00009817A8F78FEFF1CF862D807E803271F492
:100A100064FED5CF809105011816C4F480911601AB
:100A20008F3F69F2809116018F5FE3CF803431F4FC
:100A300081E08093050164FEC2CFF0CF803609F0DB
:100A4000BECF8FEF8093050164FEB9CF8091160170
:100A5000882309F4B4CF809116018150CACFC30115
:100A600099279301207E33272038310509F072C081
:100A700010920601829581708093150163FA6624B5
:100A800060F86092120180910801811107C00E94F4
:100A9000780281115EC181E0809308018091070195
:100AA000882309F41AC180910701833108F015C128
:100AB0001093040100930301E091070120911601B6
:100AC000409103015091040130E0A2E1B0E00E94A6
:100AD0002109E1506E0F711D811D911D0E94710150
:100AE000882349F0D09318014498459A1092140134
:100AF0001092130127CFC0931801609103017091E8
:100B0000040182E293E00E94E5033C018827892BDF
:100B100089F0C301807F9927803D910539F781E0F5
:100B2000809306010E948C008093180163FCDDCF46
:100B30004598DCCF80911501882309F440C380914A
:100B40000701823108F036C3809107018F5F8093DF
:100B50000701B2CF203A310509F05BC010920601BF
:100B6000829581708093150163FA662460F8609223
:100B7000120180910801811107C00E947802811141
:100B8000E8C081E08093080180910701882309F47F
:100B9000A4C080910701833108F09FC01093040125
:100BA00000930301C0931801609103017091040147
:100BB00082E293E00E9411043C018827892B09F00E
:100BC000A8CFE091070120911601409103015091B7
:100BD000040130E0A2E1B0E00E942109E1506E0F73
:100BE000711D811D911D0E94EB01882311F080E28F
:100BF000E9C280911501882309F4E1C280910701BF
:100C0000823108F0D7C2809107018F5F809307017E
:100C1000C9CFC301807F9927803C9105B1F510921F
:100C200006011092150180910801811107C00E94F0
:100C3000780281118EC081E08093080190921401A6
:100C400080921301C09318018091160180932203B2
:100C500090911201909323039091070190932403A4
:100C600091E09093250392E19093260394E390936F
:100C70002703B0920201A0920101D0921101C0920B
:100C8000100180931701449A5DCE803E9105D1F505
:100C9000109206011092150180910801811107C080
:100CA0000E947802811155C081E080930801109361
:100CB00004010093030181E08093000110920F0171
:100CC0002091160130E0A2E1B0E00E94210940E04D
:100CD00051E00E947101882341F01092140110929A
:100CE0001301D093180144984EC030921401209201
:100CF0001301C0931801109211011092100110926B
:100D00001701C1CF803F910551F510920601109255
:100D1000150180910801811107C00E94780281119C
:100D200018C081E080930801B0921401A0921301D1
:100D3000109211011092100110930401009303010D
:100D400080E092E19093020180930101C093180129
:100D50009ACF109214011092130180E836CE803D94
:100D6000910509F0EFCD81E0809306011092150105
:100D700010921401109213010E948C0080931801AC
:100D8000449863FE02C0459ADDCD4598DBCD809145
:100D9000180180FDD7CD609216018091060188234D
:100DA00009F4D0CD0E948C0080931801CBCD8091A6
:100DB000180180FDC7CD60920701C4CD8091130159
:100DC000909114018330910509F075C0809118014C
:100DD00081FD05C0809118018460809318016092A4
:100DE00017018091100190911101409101015091E2
:100DF00002018417950708F0A5CD9C012F5F3F4F96
:100E00003093110120931001609117018E5D9C4F6A
:100E1000DC016C932417350730F48091180182604F
:100E20008093180130CF809118018D7F8093180135
:100E3000449880910701E0E0882319F0E0910701D0
:100E4000E15020911601409103015091040130E0DE
:100E5000A2E1B0E00E9421096E0F711D811D911D5C
:100E60000E94EB01882341F01092140110921301AB
:100E700080E28093180187CF80911501882399F033
:100E800080910701823150F4809107018F5F809338
:100E90000701109211011092100158CF80910701A3
:100EA0008F5F8093070110921401109213018091BB
:100EB00018018C7FDECF60921701069709F073C18D
:100EC00080911001909111010196909311018093EE
:100ED000100120910101309102018217930708F45B
:100EE0009CCF809118018D7F809318014498809148
:100EF000030190910401E2E2F3E09F0122523340AA
:100F00002817390710F4E192F8CF412C512C320107
:100F1000F12C20911601409103015091040130E021
:100F2000A2E1B0E00E942109640D751D861D971D88
:100F30000E94EB01882311F0FF24F394BFEF4B1ABA
:100F40005B0A6B0A7B0AE2E14E16510461047104EC
:100F500001F71092140110921301FF2011F080E2AA
:100F6000F82EF09218010FCF76FEECCC837011F4BE
:100F7000459813CF833009F0E5CC8091130190910F
:100F800014018530910509F0ACC080910F018931C1
:100F900008F043CFE82FF0E0E053F84F0C941B0922
:100FA000E907E907E907E907E907ED07F407FA07A1
:100FB000000806080B08100815081508150815087C
:100FC00015081508150815081508190824084208F9
:100FD0004908109217018F5F04C08EEF80931701AC
:100FE00086E080930F0119CF80911601809317013D
:100FF00087E0F7CF809112018093170188E0F1CF4D
:10100000809100018093170189E0EBCF81E080930C
:1010100017018AE0E6CF82E1809317018BE0E1CFF0
:1010200084E3809317018CE0DCCF9EE4909317015A
:10103000D2CF8BEF8093170186E180930F0110923E
:10104000110110921001E9CE8091100190911101CF
:1010500020910301309104018217930770F49C01E1
:101060002F5F3F4F30931101209310018E5D9C4FF5
:10107000DC018C9180931701D0CEB6E5B0931701B7
:1010800087E1AFCFE8E7E0931701F8E1F0930F01B4
:10109000C4CE80910001E1E0E80FE0930001E3316C
:1010A00008F079C02091160140910301509104018C
:1010B00030E0A2E1B0E00E942109AE2FA150BB0BAD
:1010C0002D01BB0F66087708640D751D861D971DE1
:1010D0000E947101811101CE10920F01109217012F
:1010E0009CCE8230910519F0049709F05CC04091C4
:1010F000180120910101309102018091100190911D
:10110000110141FD14C082179307A0F4209118012A
:101110002460209318019C012F5F3F4F30931101F1
:10112000209310018E5D9C4FFC018081A3CF82171C
:10113000930788F380911501882369F18091070155
:10114000823120F5809107018F5F80930701E09144
:10115000070120911601409103015091040130E0F4
:10116000A2E1B0E00E942109E1506E0F711D811DC6
:10117000911D0E9471018111B0CDD0921101C092D8
:1011800010018091220380931701E0CD8091070127
:101190008F5F8093070110921401109213018091C8
:1011A00018018C7F12CC809118018D7F80931801DB
:1011B0004498C8CB809107018F5F8093070180918D
:1011C00018018C7F809318018FCCAA1BBB1B51E1A7
:1011D00007C0AA1FBB1FA617B70710F0A61BB70BA7
:1011E000881F991F5A95A9F780959095BC01CD014C
:1011F0000895A1E21A2EAA1BBB1BFD010DC0AA1F58
:10120000BB1FEE1FFF1FA217B307E407F50720F06F
:10121000A21BB30BE40BF50B661F771F881F991FEA
:101220001A9469F760957095809590959B01AC0133
:10123000BD01CF010895EE0FFF1F0590F491E02D41
:101240000994A29FB001B39FC001A39F700D811D9F
:101250001124911DB29F700D811D1124911D0895BF
:04126000F894FFCF30
:0A1264000100010001010101010079
:00000001FF
